:10000000250064001E0C2400200CA3041209A30484
:10001000E4050A0C24000C0CA3041209A3046400D8
:10002000A304500B04006000A40284011F0E4306C9
:0600300000088401130A20
:1002A000E304050C02000304000C0306010C21000A
:1002B000C804E8042B0C06004605C705A70567051A
:1002C0004704270507054605000000000000000060
:1002D00000000000000000000000460400000000D4
:1002E00000000000000000000000630B000C2E0066
:1002F000000C2F007B0B000C2C00000C2D00800B41
:10030000460500004604010CEC010306AD02000C9A
:10031000ED010D02800F3C00800C9C004307920B06
:10032000040C8C000307950B960B800B010CEE015F
:100330000306AF02000CEF010F02800F3C00800C9F
:100340009C004307A50BFF0C8E000307A80BA90B0D
:100350007B0B100CA601760B000C2E00000C2F005E
:10036000B10B000C2C00000C2D00000C3A00000C0E
:100370003B00BA0B0304E7060305000C0306010C5F
:100380003C007D001C02EC010306AD021D02ED01E4
:10039000010CFA010306BB02000CFB011B02800FDB
:1003A0003C00800C9C004307D70B0A0C9A00030703
:1003B000DA0BDB0BBA0B0D020C014306E00BE10B71
:1003C000E80B0A0C8C010D014307E70BE80BB10B9E
:1003D000010CEE010306AF02000CEF010F02800FCB
:1003E0003C00800C9C004307F70B1E0C8E0003079B
:1003F000FA0BFB0BB10B040CA601AC0BA304020A15
:00000001FF
